:100000000C9434000C943E000C943E000C943E0082
:100010000C943E000C943E000C943E000C943E0068
:100020000C943E000C943E000C943E000C943E0058
:100030000C943E000C943E000C943E000C943E0048
:100040000C943E000C943E000C943E000C943E0038
:100050000C943E000C943E000C943E000C943E0028
:100060000C943E000C943E0011241FBECFEFD8E04C
:10007000DEBFCDBF0E9440000C9466000C940000CF
:10008000DF93CF9300D00F92CDB7DEB7E4E2F0E07C
:100090008FE78083E5E2F0E010821B821A821982EA
:1000A0008B818F5F8B83E5E2F0E08B8180831A8206
:1000B000198205C089819A8101969A8389838981F1
:1000C0009A812AEE80369207A8F3EACFF894FFCF00
:00000001FF
